:020000021000EC
:1080000000400020C1000200FD000200FF0002004D
:108010000000000000000000000000000000000060
:10802000000000000000000000000000010102004C
:108030000000000000000000030102000501020032
:10804000070102002DAC01006DFD010007010200D7
:108050000701020000000000C1FE0100070102004C
:1080600007010200D5F8010031FE010007010200FE
:1080700007010200070102000701020007010200D8
:1080800007010200070102000701020007010200C8
:108090000701020089F601000DEB01000701020053
:1080A00007010200070102000000000000000000BC
:1080B00000000000000000000000000000000000C0
:1080C00010B5064C2378002B07D1054B002B02D0AE
:1080D000044800E000BF0123237010BDB020002041
:1080E00000000000746C0200044B10B5002B03D09C
:1080F0000349044800E000BF10BDC0460000000076
:10810000B4200020746C0200164B002B00D1144BDD
:108110009D46402292029A1A924600218B460F46B3
:108120001348144A121A0DF0C3FC0F4B002B00D059
:1081300098470E4B002B00D09847002000210400E8
:108140000D000D48002802D00C4800E000BF09F0E7
:1081500013FF200029000DF031FA09F0F7FEC046A8
:1081600000000800004000200000000000000000A7
:10817000A820002038280020000000000000000097
:108180007FB5074905A800F0AFFFC82205A9520036
:10819000044802F015F905A80AF0FEFB07B000BD7F
:1081A0003C6C0200BC2100207FB5074905A800F007
:1081B0009BFFC82205A95200044802F001F905A856
:1081C0000AF0EAFB07B000BDB4660200BC21002043
:1081D00010B50400034B036040300AF0DDFB2000C3
:1081E00010BDC046605C0200F0B585B01F000AAB50
:1081F0001B880600029115000393002F1BD0282036
:108200000DF007FC6B4604001989039BAAB200938A
:108210003B000AF060FB336821005B683000984740
:10822000002806D020000AF06DFB20000DF0EDFBC9
:10823000024805B0F0BD0248FBE7C04616FCFFFF50
:1082400017FCFFFFF0B5FA261027184C85B0200068
:1082500000F02EF9164903A800F046FF03A9782282
:10826000144802F03DF903A80AF096FB124DB6003F
:1082700031000097114B01222800FFF7B5FF3100B4
:108280000F4B022200972800FFF7AEFF14200DF0DD
:10829000C0FBE4235B00E258AD33FF33E15803F049
:1082A00065FC00F067FD002005B0F0BDCC2000208B
:1082B000B6660200BC2100209C21002081810100C3
:1082C000A981010010B5054C200000F039F8044ADE
:1082D000044920000DF092FB10BDC046CC200020C8
:1082E00000200020E9820100CA23144A9B0010B537
:1082F000C2501C330400C0180AF04EFBD0239B0070
:10830000E0180AF049FB20009130FF3001F0EEFA4E
:1083100020006930FF3001F0E9FA2000F03001F070
:108320006BFE2000D03002F06FFA2000643007F0BE
:10833000D7F9201DFFF74CFF200010BDEC600200B4
:108340001423F0B5040093B00093192218210430CF
:1083500002F0BCFC2200250026006432B435132153
:1083600010001092B83607F0C7F928000BF02CFD6A
:1083700000221E2130000BF0CCF92000D03002F09A
:1083800063FA2200F03211920621464A119801F058
:1083900057FE20000027012369301A0000971121A1
:1083A000FF3001F0AFFA2000913000970123022244
:1083B0001A21FF3001F0A6FA2000B9301A2301215A
:1083C0000222FF3002F0FEFA300001F0A7F8E422AA
:1083D0005200A050300001F0F1FAE6235B00E050BB
:1083E0000100E42220005200D130119BA2580095D8
:1083F000FF3001F035FD2000E13029001C22FF3064
:1084000002F0FCFD192320000F93013B0E93013B6A
:108410000D93013B0C93013B0B93013B0A93013BF2
:108420000993013B0893013B0793013B0693013BF2
:108430000593013B0493013B0393013B0293013BF2
:108440000193F930013B082200930721013BFF30E3
:108450000BF080F9CA239B00E018290003F0CAFE44
:10846000D3239B00E0181D2102F07CFBDD239B0041
:10847000E7501098277003210CF0D0FF2300220052
:10848000200009499C33A0321C6011605760074AE4
:1084900080305A610221012207F0C4FD200013B090
:1084A000F0BDC046685C0200A12502008B250200D9
:1084B0000123F0B506788FB004001E4000D082E0A2
:1084C0000300D0331800039300F0BEFA00F0E4F983
:1084D00028200DF09EFA050010300AF0EEFA6C4BE1
:1084E00018202B600DF095FA07006A4B04600822F3
:1084F00031000C300C930D960DF0DAFA0CA9381DF2
:1085000008220DF0B9FA644BAF607B611223EE6074
:10851000AB802E626E622900039802F009F90028F0
:1085200005D028000AF0EEF928000DF06EFA0123BC
:1085300022785A49134323702300B433180005935B
:108540000BF048FC5649049005980BF043FC0025BD
:108550000690642000F096FB2F002E002300693364
:10856000FF33180007930AF0C8FC00282DD1049BA4
:10857000002B33D1069B002B30D1DD254949AD00BE
:10858000080000F05FFC6359002B1CD100F098F844
:1085900001000AA800F0A8FD0BA80AF074F8CA238D
:1085A0009B00E018069B0BAA0AA90093039B03F00B
:1085B00077FE0BA80AF0F0F90AA80AF0EDF9CC232F
:1085C0009B00E35863510FB0F0BD20009130FF30A5
:1085D0000AF093FC0028CAD0182EC8DC20006530B1
:1085E00039B22AB2FF23FF30013700F0FBFDFFB2A2
:1085F000322000F047FB0136052F02D1002701355C
:10860000EDB2049B192E06D0002BA7D02349059864
:1086100002F088FC01E0002BF8D104980DF0F5F988
:1086200006980DF0F2F91F49080000F00BFCCA2370
:108630009B00E3180893DD239B00E3580993002B6C
:108640001ED100F03DF801000AA800F04DFD0BA876
:108650000AF019F801230BAA0AA900930898039BB2
:1086600003F01EFE0BA80AF097F90AA80AF094F985
:10867000CC239B00E3580993DD23099A9B00E25029
:108680002100079AF031089803F0F0FF66E7C04632
:10869000FD03000013260200D3250200F06602004D
:1086A000FB66020000200020BFF34F8F024B034AFD
:1086B000DA60BFF34F8FFEE700ED00E00400FA053B
:1086C000F0B58DB005AF1922154938000DF0D4F979
:1086D0000022144B05245A7180225205566E012245
:1086E00025000194029203930199300007F08CFE5B
:1086F0000800029907F002FE019B03996B43019366
:10870000029B361A6B430293631E2C1B6C433C196D
:10871000225C1C1ECA54E7D108000DB0F0BDC04653
:108720000B6702008A270020F0B597B018220021BD
:10873000060010A80DF0BCF9132110A80CF0ADFF35
:10874000032110A80DF078F84C4B1B68002B00D1CA
:108750000133DBB202934A4A012300210BA807F040
:108760009BFB484B9E4200D9002672B6464B6421C3
:108770001D68464B30000793052407F049FE60430F
:108780005030281808900A21300007F041FE0A21D5
:1087900007F024FF614350316918099130000A2124
:1087A00007F01CFF802361430024503169189B01AE
:1087B0000A910193029B002B5DD0002500272E1FFC
:1087C00007AB9B190593032C03D1802300249B0145
:1087D000019307AB5B592E4A03936300D3180493AC
:1087E0000023190006205843049A16187678B446D8
:1087F0006246039EB25C10269446049A105C624660
:108800000641164202D00120984001430133092B52
:10881000E8D1C9431F4B059A090119401268039B0F
:10882000934225D1312F23DC00210BA80DF0C5F890
:10883000FA23159A1199DB00106801421BD0013B05
:10884000002BF9D1019B01345B000193FA2301371E
:10885000E4B25B009F42B6D10435102DAED1074B78
:108860001B68002BA6D0029F013FFBB20293A1E739
:10887000019B1943D9E7FFF717FFC04648240020A2
:10888000F0FF0000E7030000042000205A67020008
:1088900024670200F01F0000F8B50023124C23608B
:1088A00009F012FF002808D00421200009F008FF79
:1088B000002801D00D4B2360F8BD0122A12704251B
:1088C0000B4B0C491A602268FF0048604E68002E6E
:1088D000FCD0DE591202013D3243002DF5D1226059
:1088E00001225A60E8E7C04644240020ED5EBC0B3C
:1088F00000D00040FCD000400B4B70B51C68002C31
:1089000010D0656D00F0ACFBA36C002901D183424F
:1089100006D8200009F00BFF0449200009F0F5FEFD
:108920002C00ECE770BDC0465024002070240020CD
:10893000F0B593B007932A4B04AC1E6804900591E0
:108940000692002E4AD0274B258867881C68002392
:108950000293002C2ED0636D23480393A36C9AB22C
:10896000A36C1B0C99B2854214D12048824211D1CC
:10897000002B01D0B9420BD1029B002B08D1200063
:1089800009F0D5FE1A49200009F0BFFE0123029329
:10899000039CDEE7002A01D09542F9D1002B01D0DB
:1089A000B942F5D1200009F0C2FE1149200009F0BA
:1089B000ACFEEDE70F4BEB18012B0FD910233A005B
:1089C000009329000C4B08A809F085FF336808A91B
:1089D0009B683000984708A809F094FF13B0F0BDD9
:1089E0004C2400207C240020FE030000FF03000034
:1089F0007024002002FCFFFF3189010010B572B61F
:108A00000B4B1C68002C08D0200009F090FE0023BE
:108A1000E364084B2000E36310BD62B65C200CF0F9
:108A2000F8FF5C22002104000DF042F8EFE7C04699
:108A30007424002000400020024B187801231840C5
:108A40007047C04690270020F7B50600FFF7F4FFF7
:108A5000051E33D11A4C2660FFF7D0FF194B1A4977
:108A6000186009F052FEFFF7C9FF184B1860184B49
:108A70004363184B8363206800280ED0C027164E2E
:108A80002A00330015490097FFF7AEFB009733002B
:108A90002A0013492068FFF7A7FB0C200CF0B9FF50
:108AA0000023838083710F4B03600F4B836000F0C2
:108AB000EFFA01230D4A11780B431370F7BDC0463E
:108AC0004C240020802400207024002078240020E2
:108AD000FC3F0020F527020031890100FF03000060
:108AE000FE030000885C0200F98801009027002046
:108AF000F7B506000D0017000193002802D10024ED
:108B00002000FEBD0029FAD0FFF778FF041EF6D042
:108B1000074B019A4363066045608760054B002A56
:108B200000D0054BA3630549200009F0EEFDE7E7FF
:108B3000FC3F0020BF270200DD2702007024002038
:108B4000024B1868434258417047C04670240020C9
:108B5000002310B504499C006258002A01D001335B
:108B6000F9E76050100010BD58240020002310B514
:108B7000044A99008C58844201D00133F9E700205F
:108B8000885010BD5824002010B50024084BA200C6
:108B9000D058002802D003685B6898470134062C3F
:108BA000F4D1044B1B68002B00D120BF10BDC04680
:108BB0005824002070240020F8B5FFF73DFF00285E
:108BC0001CD02A4D2C68E36CDA0718D502273B43EA
:108BD000E364274B1E680423F26C30001343F364F4
:108BE000636BF36309F0C9FD3000716C03F0A7FEFD
:108BF0002868C36C3B4201D003F0DBFEF8BD1D4F7B
:108C00001D4E3A683168002A1ED129602A689142B7
:108C100008D11B0706D52C60FFF7B6FF3B68002B79
:108C2000FAD02B6029688C42E8D03368994214D17D
:108C3000124B4B63124B8B63200009F09EFD296899
:108C4000626C4B6C20000DE0206DB84203D1606D6A
:108C5000002800D002002A60D8E79C42ECD1002214
:108C600010004B6C03F02AFEC8E7C04680240020A9
:108C7000542400207024002078240020FC3F002091
:108C8000F527020070B50500FFF7D6FE002803D1D6
:108C900028000CF0C5FD70BD0C4B1C68E36CDB07B5
:108CA00006D5FFF7ABFE0A4B1860002800D0040081
:108CB00000F0D6F92D18A564200009F038FD05490B
:108CC000200009F022FDFFF777FFE4E78024002071
:108CD0005424002050240020F0B51E4B1E4F1C6869
:108CE0003B6885B006000391002B30D0FFF7A4FE4F
:108CF00000282CD0E36CDB070ED5FFF77FFE174B67
:108D0000051E186008D009F012FD1549280009F069
:108D1000FCFC2C00FFF750FF039B20001B04334397
:108D2000A36409F004FD20000E4909F0EEFC0E4B8F
:108D30000024F318012B07D9C0230093039A0B4B8F
:108D400031003868FFF750FA200005B0F0BD084C3C
:108D5000FAE7C046802400204C2400205424002040
:108D6000702400207C24002002FCFFFF31890100D8
:108D700016FCFFFF10B5FFF75FFE002809D0054C79
:108D8000206809F0D4FC0449206809F0BEFCFFF714
:108D900013FF10BD8024002074240020F7B50700C5
:108DA0000D0000282ED0FFF747FE00282CD0072406
:108DB000164E3068C36C1C4007D0154A2900380095
:108DC00009F0CCFC00242000FEBD03F0DAFD0221F6
:108DD0003268D36C1940019103D003218B43D364D3
:108DE000F1E701242343D3642800B8473268D36CE9
:108DF0001900A143D164019C5B07E4D5280009F068
:108E0000E5FCE0E7034CDEE7034CDCE780240020D0
:108E1000CD27020017FCFFFF16FCFFFF020010B574
:108E2000014B12CB12C210BD84240020034B1A68E0
:108E3000034B1A607E225A607047C046042000200F
:108E40008424002070B5114E3278022A1AD0814253
:108E50001AD90C1A072C17D90D00032305432B40F0
:108E600012D172B60A4DD2005051AA185160802218
:108E7000A40812061443046032780132327062B6DC
:108E8000180070BD0348FCE70348FAE7922700206A
:108E90008C24002013FCFFFF17FCFFFF70B5134C60
:108EA00006002378124D002B0CD1124912482B706A
:108EB000FFF7C8FF114B984202D11E20FFF734FC88
:108EC0000123237000242B78A34209DD0C49E30021
:108ED000C918300009F094FC002805D10134F2E7EC
:108EE0001420FFF721FC002070BDC0469127002010
:108EF00092270020003800203828002017FCFFFFB0
:108F00008C24002070B5002819D0104B10491C7813
:108F100000239C4216DDDA005558854210D28A188B
:108F2000526882420CD9041F2368002B02DC1E20E9
:108F3000FFF7FAFB802322681B061343236070BDF2
:108F40000133E6E71E20FFF7EFFBF8E7922700204A
:108F50008C24002070B5051E14DD0B4E0B4C3368BD
:108F6000002B02D020680CF0D6FAFA2120680024E9
:108F7000074B89008361C462694335600CF0D3FA02
:108F8000200070BD0348FCE79C240020CC24002076
:108F90003D90010017FCFFFFF8B5114F06003D683A
:108FA000002D0AD130200CF034FD040006F0C8FB7F
:108FB0000C4BA5612360E5623C600B4D2B68002BD8
:108FC00009D110200CF025FD04000CF06DFA2000F2
:108FD0002C600CF043FA3000FFF7BCFFF8BDC04630
:108FE000CC24002064640200C8240020014B1868CF
:108FF0007047C0469C24002070B50D4C2368002BA0
:1090000003D00C4B1B68002B02D10620FFF7C4FFD6
:1090100020680CF03AFA02000749C3170D684E6841
:109020005219734120680A604B600CF034FA70BD2D
:10903000C8240020CC240020A820002010B5FFF771
:10904000DBFF0024054BA200D058002802D00368A3
:109050001B68984701340A2CF4D110BDA0240020CD
:1090600010B5FFF7C9FFFA22034B92001868596840
:10907000002307F0F3FA10BDA820002010B5FFF779
:10908000BBFF024B1868596810BDC046A8200020DD
:109090000B4B10B51B680400002B03D0094B1B6859
:1090A000002B02D10620FFF777FF0023064A990024
:1090B0008858002801D00133F9E78C5010BDC04614
:1090C000C8240020CC240020A0240020002310B5B8
:1090D000044A99008C58844201D00133F9E70020FA
:1090E000885010BDA024002010B50400002902D033
:1090F0000B78002B03D1034B2360200010BD09F037
:1091000052FCFAE7985C0200F8B504000E00150066
:1091100000290AD00B78002B07D0002A05D00800C0
:1091200097B20CF005FD874203D90B4B236020005A
:10913000F8BD681DFFF7B2FE206009F0D8FD236876
:109140002A005F8023683100181D0CF095FC23680D
:109150005D1900232B71EAE7985C0200014B036064
:109160007047C046985C020010B50548054C206069
:1091700009F0C0FD044A054920000CF03FFC10BD79
:10918000985C0200D02400200020002099290200D1
:10919000084B73B51C680500002C0AD00100266836
:1091A0000831082268460CF067FC0CCD31682000BD
:1091B000884773BDD4240020014B03607047C0462C
:1091C000A05C020010B50400002903D1044B036029
:1091D000200010BD0160080009F08CFDF8E7C046D2
:1091E000A05C020030B500684488A1420CDA858892
:1091F000AA4209DA002907DB002A05DB544340189C
:1092000000198371002030BD0048FCE717FCFFFF08
:10921000F0B5070085B00E001D00002921DD002AF1
:109220001FDD002B1DD00468638803938B4200DD93
:109230000391A3880293934200DD02920023063437
:109240000193019B029A93420EDA29002000039AAF
:109250000CF012FC3B68AD195B88E418019B0133EC
:10926000EEE7024805B0F0BD0020FBE717FCFFFF6A
:10927000F8B504000D0016001F00002901DB002ACC
:1092800002DA0E4B2360F8BD100048430630FFF7AA
:1092900005FE206009F02BFD23685D8023689E8019
:1092A000002F06D03B00320029002000FFF7B0FF5E
:1092B000E9E7200009F052FCE5E7C046A05C0200A7
:1092C000F7B506000D1E03D1244B03603000FEBD30
:1092D00000200F000400010001903B78002B1AD001
:1092E0003022524294469C446246092A11D90A2BE4
:1092F0000AD1019B241801330193A14200DA210015
:10930000002004000137E8E70028FBD001340020EA
:10931000F8E70120F6E76A460127928809B212B2FF
:1093200030007F42FFF7A4FF39000A2033689A1DFE
:109330002C78002CCAD02300303B092B08D8FB43E3
:10934000DB173B4043431B19303B1F000135EFE760
:10935000002FFBDB177001320F00F7E7A05C020063
:10936000F0B5040089B006A80E0002921D00FFF7B8
:1093700055FD236802995A88914235DA9B889D42AF
:1093800032DA1F2E30D9079B01939E422CDC052335
:10939000002273430393069B0493039B04999B1839
:1093A000A03BCB5C00210593AE18029BCF1823682D
:1093B0005888019087420EDA9888B0420BDDDB199D
:1093C00010270F41019870431B1805980740781E1D
:1093D00087417F429F7101310529E6D10132052A7B
:1093E000DBD1002009B0F0BD0048FBE717FCFFFF10
:1093F000F7B50468070063880E1E01931EDD9942CD
:1094000018DA0023063400933B68009A9B889A423E
:1094100012DA019BA1199D1B2A0020000CF02CFBE5
:109420006019310009F07DFB3B685B88E418009B04
:109430000133E8E709F092FB002000E00048FEBDA0
:1094400017FCFFFF10B50548054C206009F052FCE1
:10945000044A054920000CF0D1FA10BDA05C0200BE
:10946000D824002000200020152B020010B5054C48
:109470000121200009F032FC034A044920000CF0CD
:10948000BDFA10BDDC24002000200020992C020031
:109490000388074A10B50120934208D0834202D0C6
:1094A0000020DB0703D41E20FFF73EF9002010BD8B
:1094B000FFFF00000048704716FCFFFF10B5322088
:1094C000FFF732F9004810BD16FCFFFF10B5124C33
:1094D00000230834828004604162022414220100C7
:1094E0008371847203638386028136310A78C36094
:1094F000A243F1342240036143618361C36103628B
:109500000A70020040321370021DD3870133438773
:109510008387C38710BDC046C05C0200F0B5544FBE
:1095200097B03B6806000593002B00D08BE006AC9B
:109530000B331C222121200001F07CFA0EAD0B23FD
:109540001D2222210AA801F075FA0B231B222321D8
:10955000280001F06FFA08200CF05BFA0122059B4D
:10956000110004900AF011FF3A2130000AF0B7FC14
:1095700000281DD0A38812ADAB80A3795C20AB710D
:109580003C4B1293A3681493237B2B73637B6B7305
:10959000A37BAB730CF03DFA0423019336330093A5
:1095A0002A00049B3100040002F02CF83C604AE0E1
:1095B000322130000AF0C1FC00281CD0A38812AD73
:1095C000AB80A3795C20AB712A4B1293A3681493F0
:1095D000237B2B73637B6B73A37BAB730CF019FA48
:1095E000042301932E3300932A00049B31000400CE
:1095F00002F0A6F9DAE73C2130000AF059FC002815
:109600002CD0AB8812ACA380AB79A420A371194BEA
:109610001293AB6814932B7B23736B7B6373AB7BCD
:10962000A3730CF0F6F9052305000293013B0193A7
:10963000383300932200049B310001F001FF0E4BF0
:109640003D6044351D600C4B094C1868002802D061
:10965000216809F0C0FC206817B0F0BD44200CF070
:10966000D8F9042204990400FFF730FF9EE7C046B2
:10967000E0240020B05C0200E4240020F0B5614941
:10968000C56885B08D4254DA0300022236331B7858
:10969000134059D104698C4264DA020036321278E0
:1096A000520768D4426901920200019E40328E4204
:1096B0006FDA010036310978090774D4002B7DD1A7
:1096C00013780293002B16D006000127011DCB8FC3
:1096D000363601339BB2CB8703963678BC4637408B
:1096E00000D188E01D2B06D963469E43039B1E7064
:1096F0000023CB87137009F047FB434A07239042AE
:1097000076D94249043B8D4272DBC8220133920074
:1097100095426DDC023B8C426ADB013B944267DC84
:1097200001980433884263DB0133904260DC0023FC
:109730005EE0C822002352009542ABDD03003633C1
:109740001A7800239207A5D4012306001F0036369D
:1097500032785408A7433C0002279C40BA43224376
:10976000327097E7C822520094429BDD02003632E5
:109770001278520796D406000122363633789F08B5
:10978000BA439700042293431A003A4332700123EC
:1097900088E7C821019E49008E428FDD01003631E5
:1097A000097809078AD40100012636310B78DF08D1
:1097B000BE430827F600BB4333430B701378032BDB
:1097C00000D97DE70133DBB21370012B03D10021F7
:1097D000031DD98774E7042B00D071E702003632ED
:1097E0001178033B0B43137000230430C3870B3302
:1097F000180005B0F0BD092B00D87CE7029BCF878D
:10980000013B77E770FEFFFFFF700200E0FCFFFF07
:1098100070B5C369C1681A68451D8AB00400EB7F42
:10982000114255D0002B58D1EB7F082B0DD90122C6
:10983000A379134209D11343A371A188130006A889
:1098400009F045F9FFF70CFC2062EB7F012B23D8D0
:109850000123A2791A421FD00025A188A5710222F6
:1098600002A809F034F9A31DDE7F012E14D1FFF701
:10987000F7FB2B00226A801A994100900191019B0D
:10988000A188AB4203D1174B009A9A4227D90123F2
:10989000042206A809F01BF90322A3791340012B27
:1098A00014D1FFF7DDFB0023226A801A9941994207
:1098B00002D10D4B984209D90223A279A188134302
:1098C000A3710522012306A809F001F90AB070BDB1
:1098D0000B2BA9D80133EB77A6E7013BFBE733005D
:1098E0000322D6E7E7030000DB05000010B5040003
:1098F000034B08330360FFF7E9FB200010BDC046AF
:10990000F45C0200F0B5070000250E0085B002935C
:109910000AAB1B7808370393104B0400083303602D
:109920000192858085712900182238000CF0C0F85A
:10993000039A310038000BF0B5FE6B466A469B88EF
:10994000127AA380A31DE671DA77631D25622000D9
:10995000DD77FFF79DFB200005B0F0BDF45C020051
:109960000048704716FCFFFF10B53320FEF7DCFE01
:10997000004810BD16FCFFFF002310B504008380D3
:1099800083710D482164083020608020C000A061F0
:10999000E0612062E3602000236163616362A3628F
:1099A000E36223636363A363E3636364110009F009
:1099B000EAFA200010BDC0460C5D0200F0B5534F1E
:1099C00097B03B6806000593002B00D08BE00B336B
:1099D0001C22212106A80AAC01F02CF80EAD0B23A5
:1099E0001D222221200001F025F80B231B22232118
:1099F000280001F01FF808200CF00BF80122059B4D
:109A0000110004900AF0C1FC1D2130000AF07EFA1A
:109A100000281DD0A38812ADAB80A3796020AB7164
:109A20003B4B1293A3681493237B2B73637B6B7361
:109A3000A37BAB730BF0EDFF052301931833009369
:109A40002A00049B3100040001F0B0FE3C604AE0B3
:109A50003C2130000AF088FA00281CD0A38812ADFF
:109A6000AB80A3796020AB71294B1293A368149348
:109A7000237B2B73637B6B73A37BAB730BF0C9FFEF
:109A800005230193373300932A00049B310004001F
:109A900001F0F8FFDAE73C2130000AF009FA00286B
:109AA0002AD0AB8812ACA380AB79A420A371184B49
:109AB0001293AB6814932B7B23736B7B6373AB7B29
:109AC000A3730BF0A6FF052305000293013B01934E
:109AD000383300932200049B310001F0B1FC0D4BA0
:109AE0001D6044353D600B4B084A1B681068002B15
:109AF00000D0436417B0F0BD48200BF08AFF052268
:109B000004990400FFF738FFA0E7C046E4240020D2
:109B1000B05C0200E024002082B0F0B50400EDB09B
:109B20006420739372920BF07BFE052210A8110043
:109B300009F01DF8974911A8FFF7C2FB002221ABDD
:109B40006CA91A605A609A600C339942F9D11922B3
:109B5000002113A80BF0ACFFA06809F0D3FD00268C
:109B60000B90FF21A06800F049FD8B4FA06800F02A
:109B70005FFB07960996884B9F4203D0874B9F4215
:109B800000DBFDE0A06809F0BFFDA56884491AA8C4
:109B9000FFF7AAFA78221AA9280000F077FC1AA881
:109BA00008F0FAFE00267C4F0322099B606801330F
:109BB0001A40099209F080F90500606809F083F9FC
:109BC0000022784B05929D4210DB013205922A005B
:109BD000C8320BDBAA22042192000591954205DCD4
:109BE00002220592C82D01DD013205920022069263
:109BF000984210DB012306930300C8330BDBAA2332
:109C000004329B000692984205DC02230693C82882
:109C100001DD0133069310A808F0A0FF002513AB67
:109C2000EB5C012B08D160496B00CA185278C95C03
:109C300010A8FF23FFF7D6FA0135192DEFD16B4697
:109C400018229A5E6B4610A81421595E099BFFF7F3
:109C5000C9FA002F01DB0F2E07D90023A06800935B
:109C600074301A0010A908F08FFF01230893089B95
:109C700005995A004C4B9B189A1E12788A4226D19D
:109C8000013B1B78069A934221D1089A6CAB9B1832
:109C9000663BFF3B0A931B78012B18D00C23079AD5
:109CA000216853431D0000220CA809F096F921AA4F
:109CB0002B0094460CAA634423CA23C301220A9BA7
:109CC00001361A70079BF6B20133DBB20793089B8B
:109CD000013308931A2BCAD164200BF0A1FD079B16
:109CE000643F3FB2182B00D845E71A0021A91AA8F3
:109CF00009F081FB6A461DAB23CB23C21B681360AE
:109D00001A991B9A1C9B206809F04FF9E568002DF1
:109D10000CD0264912A8FFF7E7F91C231AAA12A9AA
:109D200028000AF090F812A808F036FEA06809F0A2
:109D3000EBFC11A912A8A56808F0F9FE00221C4B43
:109D4000009212A901932800130000F00FFB12A843
:109D500008F0E0FEFA2080000BF062FDA06809F038
:109D6000D3FC0B99A06800F049FC11A808F0D2FEC2
:109D700010A808F0CFFE6DB0F0BC08BC02B01847C8
:109D8000002F02D00F2E00D00EE7A06800F050FA8E
:109D90000AE7C0463A6902008C3C0000D18AFFFF06
:109DA0007F69020058FDFFFF9F690200946902006D
:109DB000DC050000F0B587B001930EAB1B880600F0
:109DC00003930D9B0D000093019B02920C9F002BAF
:109DD0003DD0002F02D1009BDB0738D528200BF0A7
:109DE00018FE0400103008F068FE6B461B8918202E
:109DF000258063800BF00DFE0500009B0822059373
:109E0000019B002103600C3004970BF051FE0822E7
:109E100004A9281D0BF030FE0E4B02226B610023BB
:109E20000399E3602362636233680A43A560A280FA
:109E30005B68210030009847002806D0200008F019
:109E400061FD20000BF0E1FD034807B0F0BD0348C1
:109E5000FBE7C0461B30020016FCFFFF17FCFFFFAC
:109E600070B58CB08360109B01604260C3600400D9
:109E70001849180009F0AEFF051E14D001001C227D
:109E8000103105A80BF0F8FD6A4608AB43CB43C27E
:109E90001B68136020680599069A079B09F085F8EE
:109EA00028000BF0B2FD0C4B186800280ED00B4AAE
:109EB00005AB059200220692C03202926A4622CB7E
:109EC00022C2230003220521FFF774FF20000CB0FB
:109ED00070BDC04694690200D4240020199B010083
:109EE000F0B5040085B0637A9C46002B04D12000B5
:109EF00009F09FFA05B0F0BDA37A266F01931023F5
:109F0000019AF35600259B1801229A402900F36814
:109F100003920293029BAB4231DDB368019A6B431B
:109F20009B1872695B00E77AD3181A785878E3793E
:109F3000012F14D15F1E3F1A10003A005B0043430B
:109F4000606F8218D3189B79634500DD6346627B9E
:109F50001A4202D00123AB4019430135DAE7022F40
:109F600005D15F1EBA1A277A013F381AE6E7032F98
:109F7000E4D1277A013FBF1A02003800DEE711233F
:109F8000C943F356606C994023691940039B1943F8
:109F90000BF013FDA27B072AACD8637B0C495B0056
:109FA0006373531CDBB290004158A373022A03D899
:109FB00008000BF02AFC96E7064B200023630023E1
:109FC0006363054BE462236414300BF0ACFA91E751
:109FD000385D0200E19E01001D34020010B504004E
:109FE000044B03600BF097FA200005F0BFFB200044
:109FF00010BDC0466464020010B504000E4B083367
:10A000000360FFF763F82000743008F083FD200040
:10A01000603008F07FFD2000583008F0BDFC2000C3
:10A02000503008F0B9FC2000044B14306361FFF796
:10A03000D5FF200010BDC046585D020098640200A4
:10A04000F8B500250400324B858008330360857124
:10A05000143016000F0005F073FB20002D4BE56255
:10A06000636125645030FFF779F820005830FFF71E
:10A0700075F820006030FFF79FF820000423F25E9F
:10A0800033682667590009B2743008F070FD3368F0
:10A09000226FE37173680126237210236581A78004
:10A0A0002561D35691685918994204DD30009840D3
:10A0B00001330543F8E711230120D356D16859181D
:10A0C000994206DD02009A4026690133324322613B
:10A0D000F6E714200BF09DFC226900212A4301239E
:10A0E000060005F0D9FEFF23220063720133A3812D
:10A0F000002348326664A37320001370A366FEF742
:10A10000C7FF0123A27920001343A371F8BDC04605
:10A11000585D020098640200F0B5437A85B00400EF
:10A12000002B04D1200009F084F905B0F0BD012214
:10A13000837A11009C461023066F0025F356039284
:10A140006344994002912900F3680193019BAB425B
:10A150002CDDB36872696B4363445B00E77AD31804
:10A160001A785878E379012F10D15F1E3F1A10003A
:10A170003A005B004343606F8218D3189B79002B31
:10A1800002D0039BAB4019430135DFE7022F05D115
:10A190005F1EBA1A277A013F381AEAE7032FE8D17F
:10A1A000277A013FBF1A02003800E2E71123C943B2
:10A1B000F356606C994023691940029B19430BF0D8
:10A1C000FCFB667AB31EDBB2FC2B14D8FEF70EFF45
:10A1D0000B4B0500236300230A4863630A4BFF21EE
:10A1E000E4622364704306F013F929004143200020
:10A1F00014300BF098F9637A012B00D995E791E7B9
:10A2000033340200B60300001D3402001FB50123E1
:10A2100081881A00684608F05AFC012303491A0095
:10A22000684608F054FC05B000BDC046FE030000BF
:10A230001FB5030048331A780400002A0DD000220D
:10A240001A70012381881A00684608F040FC012337
:10A2500004491A00684608F03AFC2000743008F0FF
:10A260007DFC1FBDFF03000010B548300378002BB4
:10A2700006D00378012B03D00121024808F096FA9A
:10A2800010BDC046FF03000010B5012104000620E8
:10A2900008F08CFA064B984208D148342378002BFA
:10A2A00004D02378012B01D020BFF7E710BDC046B2
:10A2B00016FCFFFF70B50600141E19DB05004835BB
:10A2C0002B78002B02D02B78012B13D100233000E8
:10A2D0001A007430FFF744F8002C07D033004A33DB
:10A2E0001C80002407234C3634802B70200070BD66
:10A2F000014CFBE7014CF9E717FCFFFF12FCFFFFE5
:10A30000F8B517000A68050052880B00012A09D128
:10A310000021180008F0C4FB002201002800FFF70C
:10A32000C9FFF8BD002F19DD060048363278002A33
:10A3300002D03278012A13D12A00002428005C328E
:10A3400019001480583008F086FB2B004A331F8018
:10A3500003234C352C8020003370E2E70148E0E70E
:10A360000148DEE717FCFFFF12FCFFFF73B5079CF7
:10A370000500002C1CDB060048363078002802D08F
:10A380003078012816D106981BB2C0B20090280080
:10A3900012B2743008F0F8FB002C07D02B004A33BF
:10A3A0001C80002407234C352C803370200076BDA0
:10A3B000014CFBE7014CF9E717FCFFFF12FCFFFF24
:10A3C000F7B505000E00171E26DDFFF74DFF2B0029
:10A3D00048331C78E4B2002C20D133685B88012B11
:10A3E00009D12100300008F05BFB220001002800A9
:10A3F000FFF760FFFEBD310001A808F024FB3A0022
:10A4000001A92800FFF77CFF01A808F0C5FA280081
:10A41000FFF73AFF2000EDE70148EBE70148E9E7E5
:10A4200017FCFFFF11FCFFFFF0B587B00D9C060085
:10A430000F0002920393002C20DBFFF715FF33007F
:10A4400048331D78EDB2002D1AD1390005A808F067
:10A450006EFB0C9B01940093029A039B05A93000AC
:10A46000FFF784FF05A808F055FB002C03D030004F
:10A47000FFF70AFF2C00200007B0F0BD014CFAE7FF
:10A48000014CF8E717FCFFFF11FCFFFFF8B50400D3
:10A49000171E1DDD060048363378002B02D03378B6
:10A4A000012B17D12200E3795632013B13702300B0
:10A4B0000025200054331D80503008F0CCFA2300D2
:10A4C0004A331F80022328004C3425803370F8BDA6
:10A4D0000148FCE70148FAE717FCFFFF12FCFFFF09
:10A4E000F7B505000F00161E18DDFFF7BDFE2B00A7
:10A4F00048331C78E4B2002C12D1390001A808F0CE
:10A50000A2FA320001A92800FFF7C0FF01A808F055
:10A5100043FA2800FFF7B8FE2000FEBD0148FCE723
:10A520000148FAE717FCFFFF11FCFFFFF8B5040034
:10A53000171E2DDD060048363278002A02D0327808
:10A54000012A27D15D42069BFF331FD16B1D2200DC
:10A550001BB2643213802300200066331D7060300C
:10A5600008F0EDFA230000226C331A70954200D0F7
:10A570003D0023004A331D80079B00205A1E934153
:10A58000013F4C34053327803370F8BD069BDEE76E
:10A590000148FAE70148F8E717FCFFFF12FCFFFF4C
:10A5A000F0B587B005000F00161E03931EDDFFF700
:10A5B0005BFE2B0048331C78E4B2002C18D1390024
:10A5C00005A808F0B4FA0D9B320001930C9B05A975
:10A5D00000932800039BFFF7A9FF05A808F09AFA4B
:10A5E0002800FFF751FE200007B0F0BD0148FBE74F
:10A5F0000148F9E717FCFFFF11FCFFFFFF2902D814
:10A600004172002070470148FCE7C04617FCFFFF7D
:10A6100013B5040004A80078009020000AF0A9FFF8
:10A62000002801D1207516BD0048FCE70EFCFFFF95
:10A6300013B5040004A80078009020000AF081FF00
:10A64000002801D1207516BD0048FCE70EFCFFFF75
:10A650007FB50D0011000F226A4404001E1E117008
:10A6600016D0089B002B13DD012329000093FFF770
:10A67000DFFF002802D0074804B070BD0090089B9F
:10A68000320029002000FFF7C3FF0028F4D0F2E7D2
:10A690000148F1E70EFCFFFF17FCFFFFF7B50700CD
:10A6A0000D1E3FD00023022604690193002C35D0F3
:10A6B000AA88A3885340334204D1324204D1AB88E4
:10A6C000334226D0646AF1E7A968A06809F042FE27
:10A6D0000028F4D02B88002B02D022889A42F1D196
:10A6E0006B88002B02D062889A42EBD1EB68E2685B
:10A6F000934201D0002BE5D17B68002B01D02000D4
:10A700009847A288084B1343A380019B0133019310
:10A71000D8E7A368AA689342D4D1DBE7019B200065
:10A72000002B00DC0148FEBD0080FFFF17FCFFFF8F
:10A73000F0B5060085B00D1E5DD001270469002C20
:10A7400026D00221AA8800230A4202D0A3885B08EF
:10A750003B40226829688A4214D1A068A968002B6E
:10A760000ED009F0F7FD00280CD0EB68E2689342A8
:10A7700008D1A3881AB2002A06DB204805B0F0BD34
:10A780008842F2D0646ADAE75B045B0CA380F4E7EA
:10A7900030692A88002807D13561012318496846A5
:10A7A00008F095F90020E9E7010003001C889442B5
:10A7B00006D25C6A1900002C0DD02300F6E72300B6
:10A7C0001C88944207D15F886C88A74203D85C6AD2
:10A7D0001900002CF3D1884209D10B889A4204D386
:10A7E00005D148886B88984201D96962D4E74B6AE1
:10A7F0006B624D62D1E70348C0E7C04616FCFFFF1D
:10A80000FD03000017FCFFFF064B10B51A00040003
:10A8100008322C33026083600830FEF7A7F920006D
:10A8200010BDC046705D020008B4024B9C4608385B
:10A8300008BC604709A8010008B4024B9C460838D0
:10A8400008BC60477B3802000C4A002311002C3200
:10A85000083110B543608381837382600361436173
:10A860008361C383016004000830FEF771F9044B73
:10A870001A68002A00D11C60200010BD705D020023
:10A88000D4240020F7B50E00012504690192002CA4
:10A8900036D0238832889A4201D0002B23D1638896
:10A8A00072889A4201D0002B1DD1FEF7C5F8012312
:10A8B000002806D0C022A3881340C03B5A4253410F
:10A8C000DBB2019A934219D1A7883BB2002B15DB6A
:10A8D00010223100A0180BF0CFF840231F4204D003
:10A8E000200008F0D3FF646AD1E7FEF7A5F800283E
:10A8F000F6D021000348FEF751FAF4E70025F2E70D
:10A900002800FEBD8D38020008B4024B9C46083872
:10A9100008BC6047153A0200F0B587B001930EAB52
:10A920001B88060003930D9B0D000093019B029270
:10A930000C9F002B3DD0002F02D1009BDB0738D5A8
:10A9400028200BF066F80400103008F0B6F86B46CB
:10A950001B891820258063800BF05BF80500009BA5
:10A9600008220593019B002103600C3004970BF033
:10A970009FF8082204A9281D0BF07EF80E4B022236
:10A980006B6100230399E3602362636233680A43C7
:10A99000A560A2805B68210030009847002806D09F
:10A9A000200007F0AFFF20000BF02FF8034807B09E
:10A9B000F0BD0348FBE7C0464F3A020016FCFFFF1C
:10A9C00017FCFFFFF0B50400160000258380164A2F
:10A9D000164B85710260218146810573186889B024
:10A9E0008C46A8421DD0124A05950492C0220292BC
:10A9F0006A4604AB82CB82C223002A006146FFF77D
:10AA00008BFFC022094B0A49186802926A460691D8
:10AA100006AB079582CB82C223002A003100FFF7E4
:10AA20007BFF200009B0F0BDB45D0200D4240020FB
:10AA3000793B020030B5002403730123034D847178
:10AA40000560818082734373846030BDB05C020016
:10AA500070B583790400DB0702D580680AF0D5FF62
:10AA6000A3799B0702D5A0680AF0CFFFA3795B0703
:10AA700007D5A0230021144ADB00D150A0680AF0BA
:10AA8000C4FFA3791B0708D5A568002D05D02800B1
:10AA900009F0D1FC28000AF0B8FFA379DB0605D540
:10AAA000A068002802D00368DB6898476023A27979
:10AAB0001A4205D0A068002802D003685B68984756
:10AAC0000023A360A37170BD00700040F7B501269C
:10AAD000037B040033422AD0612385791D4017D1BE
:10AAE000FFF7B6FF18200AF094FF0E230700E35685
:10AAF00018220093637B290001930AF0D9FF019A81
:10AB0000009938000AF0CEFDA379A7603343A37102
:10AB10006023A279A0681A4202D00AF078FCFEBD38
:10AB2000436940681B681840431E9841F7E7014895
:10AB3000F5E7C04616FCFFFF10B501248379417389
:10AB40001C4004D080680AF077FE002010BD60220F
:10AB5000134203D080680AF061FCF6E70048F5E78D
:10AB600016FCFFFF70B5040000250C4B0E000833E7
:10AB70008580857103602100183009F0AEF820004F
:10AB80002100203009F0CCF8054BA680E580257225
:10AB9000E5602561656120001C6070BDC45D020038
:10ABA000E82400208379DB0702D5C16000207047CC
:10ABB0000048FCE716FCFFFF8379DB0701D5C0687E
:10ABC00070470148FCE7C04616FCFFFF70B54569B9
:10ABD0000400002D22D0037A032B21D8FFF7ECFFCD
:10ABE000A8622C200AF015FF2C22002105000AF093
:10ABF0005FFF002263695A622369934208D1636947
:10AC000023610020237A65610133237270BD130034
:10AC10005A6A002AFBD162695A62F2E70148F5E7F5
:10AC20000148F3E717FCFFFF13FCFFFF144B70B55F
:10AC30005A68144C002A03D000225A600132A260E4
:10AC40001A69002A17D0002119618023DB000E4DFC
:10AC5000E3582868012B0FD1A923DB00E1584942B2
:10AC6000FFF7A0FF2868FFF7B1FF2B685A69074B71
:10AC7000E2500123A36070BDFFF794FFF9E7C046DF
:10AC8000FC10004000100040E824002004050000F3
:10AC900003000069002809D00221054AD167426AF1
:10ACA0001A611A7A013A1A72024B19607047C0464B
:10ACB00004E100E000E100E010B5002903DB024BF5
:10ACC00019600AF0A6FC10BDEC24002070B5040049
:10ACD0001E0004AB1D7804F07BFD20000E4B4030BD
:10ACE0002360FEF73BFA230001364C330135220086
:10ACF0001E701D730023E1214E32A364636513802F
:10AD000053809381D381013B200063644902FFF7A4
:10AD1000D3FF200070BDC046605C0200F7B58027FD
:10AD20007F053D697C690822113C6C4306002100C7
:10AD300068460AF0A1FE104B009A9A4219D000937F
:10AD400000230193796930001339694308F0FDFF4E
:10AD5000019A0099300009F010F82100300008F045
:10AD6000F4FF7969AB08133969432200300008F019
:10AD7000F6FF0198FEBDC046FECA0000F0B50D000A
:10AD8000A9B00D9200213022060010A80B930AF002
:10AD90008FFE28000AF0CCFE431C0C93102B00D928
:10ADA000B5E00B9B202B00D9B1E02900300009F061
:10ADB00011F8071E50D129000C9A10A80AF05CFE69
:10ADC0000D990B9A14A80AF057FE80235B051A69A7
:10ADD0005F690C92113F7A4330005D690B92FFF777
:10ADE0009DFF3022002104001CA80AF061FE29000A
:10ADF00000270C9B13395943300008F0A6FF0D972C
:10AE000030257D430B9B0833ED18A74242DA290019
:10AE100030221CA80AF030FE10A91CA80AF07EFE01
:10AE2000002827D13C49300022000E910F9408F0F1
:10AE3000A4FF6A46099513AB23CB23C223CB23C2BD
:10AE400023CB23C23000129B1099119A08F0A3FF64
:10AE500001230D930137D3E710300B9A0D990AF0B7
:10AE6000FCFD040038000AF0D0FD002CA3D1200026
:10AE700029B0F0BD6A4609951FAB23CB23C223CB73
:10AE800023C223CB23C230001C991D9A1E9B08F0BD
:10AE900082FFDFE7E5433023ED1725405D430B9B41
:10AEA00008355D190D9B002B1DD10C9B3021981E80
:10AEB00005F024FAA0422CD01749013430002200BA
:10AEC0000E910F9408F059FF6A46099513AB23CBF6
:10AED00023C223CB23C223CB23C230001099119A63
:10AEE000129B08F058FF0B99300008F02EFF8023CA
:10AEF0005B0559690C230C9A133963434A430233A7
:10AF0000110030000B9A08F02AFF0024AFE7034C31
:10AF1000ADE7034CABE7C046FECA000017FCFFFFDD
:10AF200013FCFFFF8023F0B55B051A6995B003920F
:10AF30005A6905910399113A51435D69039B133D89
:10AF4000040002915D43FFF7E9FE061E3BD0002797
:10AF500030220021083508A801950AF0A9FD0199C1
:10AF6000200008F0F2FE049730237B43029D083551
:10AF7000ED18B7421FDA2900302208A80AF07CFD3C
:10AF8000059908A80AF0CAFD00280AD11949721EBD
:10AF900020000691079208F0F0FE01230493013788
:10AFA000E2E70C23019A2900200008F0D8FE019B5B
:10AFB00030330193F3E7049B002B06D10D49320097
:10AFC000200008F0DAFE0C4812E00299200008F098
:10AFD000BCFE80235B0559690C23039A13394A434D
:10AFE0007343110020000233029A08F0B8FE0020DB
:10AFF00015B0F0BDFECA00000CFCFFFF70B50400E8
:10B00000A280FA22002308000C4992000831216036
:10B01000A3716061E260A3606382094908F0DAFE0F
:10B02000051E09D0010020001031022212300AF062
:10B0300023FD28000AF0E9FC200070BDDC5D020061
:10B04000D169020030B50225837987B004002B4214
:10B0500004D1FDF77DFDA3791D43A571200008F003
:10B0600003FF00281CD06B46DD1C280008F0F3FE0F
:10B070002B78002B17D001A808F0EBFE0321019AD2
:10B08000D3170B409B189B102382FDF7E9FFE36861
:10B09000A18818180123A0601A0002A807F017FD64
:10B0A000002007B030BD0122064B1A60064A5168E5
:10B0B0000029FCD000215160044A1268019201224B
:10B0C0005A60DBE700C00040FCC0004008C50040FB
:10B0D000022802D10122014B1A70704793270020E9
:10B0E00070B5064C05002378002B04D1044801F00C
:10B0F0001FFE01232370280070BDC0469427002046
:10B10000D1B0010070B50C0007F0DEFA002810D0B5
:10B110000023144DA40A2B70200008F0B9FE00286B
:10B1200003D00A200AF07CFBF6E72B78002BFCD03A
:10B1300070BD02210C4B0D4A99508021C9000800B6
:10B140005D58002DFCD0A121C9005C501958002980
:10B15000FCD0002199508021C9005A58002AFCD007
:10B16000E6E7C0469327002000E001400405000008
:10B17000F8B50C0015001E0007F0A6FA002811D043
:10B180000023174F3B7032002900200008F07EFE9C
:10B19000002803D00A200AF043FBF4E73B78002B99
:10B1A000FCD0F8BD01210F480F4B84461950802177
:10B1B000C9005A58002AFCD080270022FF0096427E
:10B1C00007DD910068586050D9590029FCD0013240
:10B1D000F5E7002261465A50DA59002AFCD0E0E730
:10B1E000932700200405000000E0014008B4024B52
:10B1F0009C46443808BC6047953E0200FA21F8B5E9
:10B200000389C90004005943324809F0B9F8FA210A
:10B21000890005F073F8304F2081A17A380009F0D9
:10B22000AFF823002600250022894C33A072A036F7
:10B230001A808C35317800232A22286808F071FAA8
:10B24000002801D02548F8BD31781F235B222868EB
:10B2500008F067FA0028F5D1317820235C222868AD
:10B2600008F05FFA0028EDD1317801232C222868FC
:10B2700008F057FA0028E5D1317801232D222868FB
:10B2800008F04FFA0028DDD1317801232E222868FA
:10B2900008F047FA0028D5D1A17A380009F06BF8F8
:10B2A0003178C3B20E22286808F03BFA0028C9D1D1
:10B2B000FA21238989005943064809F05CF80123E3
:10B2C0000343DBB231782A22286808F02AFA0028E2
:10B2D000B9D0B7E7FC5D0200F45D02000EFCFFFF91
:10B2E00008B4024B9C46443808BC6047FDB10100DD
:10B2F000074B10B51A00040008323C330260436467
:10B30000443007F00EFE200007F030FD200010BD95
:10B310005C5E020008B4024B9C46443808BC60479F
:10B32000F1B2010008B4024B9C46443808BC6047A7
:10B330009F3E0200F0B5042583798BB004002B42B8
:10B3400004D1FDF705FCA3791D43A57120009030C1
:10B35000FFF7BCFB0026B0420FD12300A0331978C1
:10B3600020000C2307AD00938C302B0001220068D5
:10B37000FFF76EF9061E03D02C4E30000BB0F0BD67
:10B380000A2304AA9B182A785A706A781A70002235
:10B39000985EAA785A70EA781A700022995E039132
:10B3A0002A795A706A791A7000229F5EAA795A70B7
:10B3B000EA791A7000215A5E04922A7A5A706A7ADF
:10B3C0001A7000215A5E0592AA7A5A70EA7A1F25ED
:10B3D0001A7000229B5EA27A03999C46514349420F
:10B3E0005043CB172B407A435B185B11A361C31703
:10B3F0002B401818D3171D406423AD18059A5B42E3
:10B400005343A36764236146049A40115A434B4354
:10B41000E2676D11221DE06125622000D36707F00D
:10B420001EFD2000443007F083FDA6E70EFCFFFF61
:10B4300008B4024B9C46443808BC604735B3010051
:10B44000F7B51E00040008AB1B881500019309AB7B
:10B4500000911A8831000AAB1F88FEF737F82000E8
:10B460003A0031004430FEF787FA134B20001A00EF
:10B470003C336364230008322260009A8C331A60E4
:10B48000AB8890308380AB796A4683710B4B92888E
:10B490000360AB68032183602B7B03736B7B437377
:10B4A000AB7B83732300A0331A80FFF745FB20009A
:10B4B000FFF7A4FE2000FEBD5C5E0200B05C02004F
:10B4C000F8B5FA260189B60004007143264808F051
:10B4D00057FF310004F012FF244F2081A17A380079
:10B4E00008F04EFF2500A0725835297800232A2243
:10B4F000606C08F016F9002801D01D48F8BD2978C5
:10B5000010232B22606C08F00CF90028F5D1297863
:10B5100001232D22606C08F004F90028EDD1297870
:10B5200001232E22606C08F0FCF80028E5D1A17AF6
:10B53000380008F020FF2978C3B20E22606C08F0B2
:10B54000F0F80028D9D121890748714308F013FF8A
:10B5500001230343DBB229782A22606C08F0E1F86A
:10B560000028CBD0C9E7C046C45E0200BC5E020022
:10B570000EFCFFFF10B50400034B0833036007F017
:10B58000F5FB200010BDC046245F02007FB50425F6
:10B59000837904002B4204D1FDF7DAFAA3791D4325
:10B5A000A57120004830FFF791FA0025A8420DD17F
:10B5B000230058331978062302AE0093012233008A
:10B5C000606CFFF745F8051E03D00D4D280004B050
:10B5D00070BD022300210420F356A27ADB007156CD
:10B5E00030565343C000C900514342435B42A361FC
:10B5F0002368E16122629B6A20009847E6E7C04623
:10B600000EFCFFFFF8B50400150006AA168807AA6D
:10B610000F0012881900FDF759FF0F4B67640833BC
:10B6200023602300AA8848339A80AA7920009A715F
:10B630000A4AA264AA6822652A7B1A736A7B5A7333
:10B64000AA7B9A730023A371230058331E80FFF74F
:10B6500037FF2000F8BDC046245F0200B05C020046
:10B6600010B50400034B0833036007F05AFC2000B8
:10B6700010BDC046B85F0200F0B507005C3787B068
:10B680000400397800231022806C08F04AF8032661
:10B69000002802D01F4807B0F0BD0F2502ABED18FF
:10B6A0000123397808220093A06C2B00FEF7D0FF0D
:10B6B000184B9842EED02B78334203D06420FDF72C
:10B6C000E1FAEAE7FA262189134DB6007143280012
:10B6D00008F056FE310004F011FE20813978A023D5
:10B6E0001122A06C08F01DF80028D3D1A36C218989
:10B6F0000393714328003F7808F03DFE012318436F
:10B70000C3B210223900039808F00BF80028C2D009
:10B71000C0E7C0460EFCFFFF585F020070B5082569
:10B72000837986B004002B4204D1FDF711FAA37986
:10B730001D43A57120004C30FFF7C8F9061E0DD03F
:10B7400023005C331978062304AD009301222B00FB
:10B75000A06CFEF77DFF061E03D0134E300006B02E
:10B7600070BD0E232A786B445A706A7820001A70D4
:10B770000022995E64224A43A263AA785A70EA784A
:10B780001A700022995E6422524251436163297902
:10B7900059706979197000215B5E5A432368E2632E
:10B7A0001B6A9847DAE7C0460EFCFFFFF8B50400B5
:10B7B000150006AA168807AA0F0012881900FEF7BE
:10B7C000DBF80D4BA764083323602300AA884C33B1
:10B7D0009A80AA7920009A71084AE264AA68626590
:10B7E0002A7B1A736A7B5A73AA7B1E829A73FFF7AD
:10B7F00043FF2000F8BDC046B85F0200B05C020005
:10B80000F7B5FA250189204FAD00040069433800DF
:10B8100008F0B6FD290004F071FDA17A20811B48D3
:10B8200008F0AEFD2600636CA072009321895836A3
:10B83000337869433800019308F09DFD07230343E3
:10B84000DBB220220199009807F06BFF002801D09D
:10B850000F48FEBD317810232222606C07F061FF93
:10B860000028F5D1A17A0948656C377808F083FD86
:10B8700080235B420343DBB223223900280007F018
:10B8800050FF0028E5D0E3E7EC5F0200E45F020030
:10B890000EFCFFFF10B50400034B0833036007F0F4
:10B8A00065FA200010BDC0465C600200F0B50425BA
:10B8B000837985B004002B4204D1FDF749F9A379BF
:10B8C0001D43A57120004830FFF700F9061E0DD07A
:10B8D000230058331978062302AD0093A8222B00C9
:10B8E000606CFEF7B5FE061E03D0144E300005B0A6
:10B8F000F0BD1F200023EA5ED31703409B180222ED
:10B90000A95E5B11CA170240521804216F5E5211E2
:10B91000F9170140C91949112B806A80A980A07AC2
:10B920004343424341435B42E36123685242A26185
:10B9300021629B6A20009847D8E7C0460EFCFFFFB3
:10B94000F8B50400150006AA168807AA0F00128889
:10B950001900FDF7BBFD0F4B67640833236023001C
:10B96000AA8848339A80AA7920009A710A4AA26468
:10B97000AA6822652A7B1A736A7B5A73AA7B9A7318
:10B980000023A371230058331E80FFF739FF2000E6
:10B99000F8BDC0465C600200B05C0200F7B5FA2555
:10B9A00004000189134EAD006943300008F0E8FC43
:10B9B000290004F0A3FC2700A36C208100935C37CE
:10B9C0003B7881B269433000019308F0D4FC6022D7
:10B9D000C3B20199009807F0A4FE002801D00648E0
:10B9E000FEBD397801236222A06C07F09AFE002880
:10B9F000F6D0F4E7906002000EFCFFFF10B50400E3
:10BA0000034B0833036007F08CFA200010BDC046DA
:10BA1000B86002007FB50825837904002B4204D169
:10BA2000FDF796F8A3791D43A57120004C30FFF770
:10BA30004DF8051E0DD023005C331978062302AEA5
:10BA40000093E8223300A06CFEF702FE051E03D02F
:10BA50000B4D280004B070BD0223F25E96235B42BA
:10BA60005A4362630021725E20005343A3630423A0
:10BA7000F25E96235343E36323681B6A9847E8E723
:10BA80000EFCFFFFF8B50400150006AA168807AAE9
:10BA90000F0012881900FDF76FFF0D4BA7640833E4
:10BAA00023602300AA884C339A80AA7920009A71D7
:10BAB000084AE264AA6862652A7B1A736A7B5A7331
:10BAC000AA7B1E829A73FFF769FF2000F8BDC0466B
:10BAD000B8600200B05C0200F0B585B001930AAB1B
:10BAE0001E880BAB1B78451C02930EAB1B78040021
:10BAF00003930B78170003704B8A102243820131A5
:10BB0000280009F0B9FF6B469B88268363836B4648
:10BB10001B7B002623776B4601221B7A6761E68335
:10BB2000EB77A31CDA770C9B0C25636223002000C3
:10BB30000D9A28331A705E709E702A0031002C30E6
:10BB400009F0B6FF2000074BE663A3632A0031002B
:10BB5000403009F0ADFF2000034B2665E36405B0DB
:10BB6000F0BDC046893F02007B3F0200F0B50700F0
:10BB7000C5B001604260684900222FA808F087FA2A
:10BB80003B000833069312230024012601930C3B4B
:10BB900012AD04960093069A23002FA903940294F1
:10BBA0001AA8FFF799FF22005C49280008F06FFAF5
:10BBB0003B000E3307930A230193083B2900079AA1
:10BBC000049600930394230002942FA8FFF784FFA8
:10BBD0007868BC600368BC815B699847622202ABED
:10BBE000D218D677B62202ABD218D6771AAA099203
:10BBF0002FAAF8810A924A4922000DA808F047FAB4
:10BC00002C21412002AA5218137802AA2B70D38F3C
:10BC100001316B8202AB1022C918C01809F02CFF49
:10BC2000022309AE38682B75AE61AC8308F024FCA2
:10BC3000036829001B6898477E2202AB9B181B886B
:10BC400054323B8202AB9B181B8838687B8208F019
:10BC500013FC0368398A0094DD68069A0623A84716
:10BC6000386808F009FC0368798A0094079ADD684F
:10BC70000223A847386808F0FFFB0600142009F0EB
:10BC8000C8FE0500274B0461082280C00BA90B9356
:10BC90000C9409F0F1FE244BEB60B369A34239D157
:10BCA000224BB5611D68002D31D0282009F0B1FE6E
:10BCB0000400103006F001FF1D4B1820236009F02E
:10BCC000A8FE002206001B4B0E92076008320021DE
:10BCD0000C300D9309F0ECFE08220DA9301D09F07F
:10BCE000CBFE154B00227361C223A3802B68E26058
:10BCF000A660226262625B682100280098470028E3
:10BD000005D0200006F0FEFD200009F07EFE380080
:10BD100045B0F0BD2B61C3E7D9690200E9690200B3
:10BD2000F969020001400200973F0200D42400207C
:10BD30000400010045400200C13F020010B50400AC
:10BD4000054B083303601C3006F026FE2000183037
:10BD500006F022FE200010BDE4600200FF23F0B5D3
:10BD60002C4D8DB02B700023040069460088009391
:10BD700002F00EFE002802D16B469B782B70264EF7
:10BD80003368DB68002B07D1002320881A001900D4
:10BD900008F0A2F90DB0F0BD2B78032BF4D81F49A1
:10BDA00001A8FDF7A1F9336801A9DE6804A806F02F
:10BDB0004AFE04A9300008F040F80027060004A855
:10BDC00006F0EAFDBE421ED031002022103104A848
:10BDD00009F052FE300009F018FE297804ABC900C2
:10BDE0005918082202A809F047FE208801230822DA
:10BDF00002A908F071F90137002804D12088084A07
:10BE00000C2108F067F901A806F0C6FD002FBBD091
:10BE1000C0E7C0467C200020FC240020946A020079
:10BE2000FFFF0000F0B5837991B004005B071BD5DC
:10BE3000FDF716F900232269801A9941994203D12E
:10BE4000F423FF3398420FD9A068002808D0364B5E
:10BE50001D8808F00DFB036815221B6A290098470E
:10BE60000422A3799343A371A3799B0759D52F4D3E
:10BE70002B68DB68002B50D02D4B1B78032B4CD844
:10BE8000294B2C491B8804A80193FDF72DF92B6839
:10BE900004A9DE6808A806F0D6FD08A9300007F05E
:10BEA000CCFF070008A806F077FD02AB9E1D082313
:10BEB0003200338006A9073B019808F00FF9002FE4
:10BEC00008D039002022103108A809F0D5FD38002B
:10BED00009F09BFD164B32881B7806A9DE0008ABE3
:10BEE0009E19300009F0B9FD002813D0082206A9D8
:10BEF000300009F0C1FD2B6804A9DD6805A806F033
:10BF0000A2FD202308AA05A9280007F09CFF05A888
:10BF100006F042FD04A806F03FFD0222A3799343F8
:10BF2000A37111B0F0BDC04678270020FC2400208A
:10BF30007C200020946A0200F7B5089E05001529B0
:10BF400022D8012007008F40244C27421CD0E97FD3
:10BF5000CC181F2C41DC69183418A14210D80021DC
:10BF6000C8B2834204D9545C701884700131F7E779
:10BF700032789A183270EA7F9B18EB7700202CE019
:10BF80000878C8540139E8E73478013CE4B2A342A8
:10BF900008D10023D9B28C42F0D9D05CF118887056
:10BFA0000133F7E7EF7F0120FF183F1B1F2F14DC41
:10BFB0000227A01C7F423618381B0190E87F2F18FB
:10BFC000BE4204D23078019FF0550136F6E7041BDB
:10BFD000023CEC77280008F0B4F8FEBDFC0020001D
:10BFE00070B504000D1E036809D15B699847FA20FB
:10BFF00080006843074904F081F9E08070BD9B68C8
:10C000009847A842F3D9236820009B689847050009
:10C01000EDE7C04671020000F0B507001600A1B0C0
:10C0200002C704006B4918A81D0008F0D1F8331EA0
:10C0300003D0300009F07CFD83B20122049200227B
:10C0400003920292023201920093320018A9380042
:10C05000FFF742FD23006049583318A8079308F002
:10C06000B7F82B1E03D0280009F062FD83B201222D
:10C0700004920022039202920232019200932A005B
:10C0800018A90798FFF728FD23005449AC3318A8D6
:10C09000089308F09DF8269B002B03D0180009F0A8
:10C0A00047FD83B2012204920022039202920232DF
:10C0B00001920093269A18A90898FFF70DFD631CBA
:10C0C000FF33474918A8099308F082F8279B002BF3
:10C0D00003D0180009F02CFD83B201220492002243
:10C0E000601C03920292023201920093279A18A9CF
:10C0F000FF30FFF7F1FC23005533FF33394918A80F
:10C10000099308F065F8289B002B03D0180009F06C
:10C110000FFD83B2012204920022039202920232A6
:10C1200001920093289A18A90998FFF7D5FC2300DB
:10C13000A933FF332C4918A80A9308F049F8299B22
:10C14000002B03D0180009F0F3FC83B20122049203
:10C15000002218AD03920292023201920093299AB2
:10C1600029000A98FFF7B8FC204B1B780B93002B93
:10C170002DD1079B12971393089B0DAF1493631C4B
:10C18000FF331593099B1A4916930A9B380017939E
:10C1900008F01EF81D2149203B7810222B707B8A65
:10C1A00012AE6B8206ABC918C01809F065FC0623F5
:10C1B0002B756B469B8D2068AB83AE6108F05CF9F4
:10C1C000036829001B6898470122084B1A70200059
:10C1D00021B0F0BD292A0000242A0000252A0000F1
:10C1E000272A0000262A0000282A00009527002080
:10C1F0000A18000070B5002504000B4B8580083339
:10C2000085710360C1601830FCF7A8FF20001C3066
:10C21000FCF7A4FF0123621CD377044AA560656183
:10C2200020001460A37170BDE4600200FC240020B3
:10C23000FA2130B585B00500012302228900684645
:10C2400006F045FC074C2068002809D007F0F9FFEC
:10C250002988054B22681980022391790B43937139
:10C2600005B030BDFC2400207827002010B50C005C
:10C2700007290DD8806808F0FBF8064B19570368AA
:10C280005B6C9847431E9841034B4042184010BDD9
:10C290000248FCE78C6A020016FCFFFF17FCFFFF58
:10C2A000F0B5984C0D00A544040096AB1B78964958
:10C2B00008A807930692FCF717FF200029001C30FE
:10C2C00006F0C9FB914909A8FCF70EFF90490AA89E
:10C2D000FCF70AFF0CAE09AA08A90BA806F0CAFBD6
:10C2E0002A00300011AD0BA906F0C4FB0AAA3100E8
:10C2F000280006F0BFFB290008A806F0ACFB2800C8
:10C3000006F04AFB300006F047FB0BA806F044FBA2
:10C31000E020C00000F002FD082009F07AFB0700D1
:10C32000002100F0E9FB0C22A7600021300009F099
:10C33000BFFB2B0007CE07C3764B2900EB60002321
:10C3400038002B6108F07DF8A06808F091F8082209
:10C350000021059012A809F0ABFB142009F059FB4D
:10C360006D4B2A0011930300C2CAC2C36B4B059FD9
:10C37000C3600023A43703613B68002B00D0BAE000
:10C380003860A06808F078F808220021060012A89A
:10C3900009F08EFB142009F03CFB614B1193030064
:10C3A00086CD86C35F4BC36000230361336B002BD4
:10C3B00000D0A2E03063A06808F05AF808220021FB
:10C3C000059012A809F074FB142009F022FB564BCB
:10C3D00011AD11932A000300C2CAC2C3534B059E7C
:10C3E000C3600023983603613368002B00D086E0D9
:10C3F0003060012004AB1B7F04AA03430BA9137711
:10C4000007F06EFEA06808F03BF8036848495B6AD5
:10C410009847A06808F034F8036846499B69984734
:10C42000A06808F02DF80021036800911E680A003A
:10C430000B00B047079B002B0AD0200007F00AFF33
:10C44000032805DDA06808F01BF80368DB6898473F
:10C4500006212000FFF70AFF374B384A1B68A16806
:10C460000393374B28001B6800250293354B0CAE15
:10C470001B680193069B1B6804330093324B1268C0
:10C480001B68FFF7C9FDA06807F0F2FF03683100E1
:10C490009B6A98472D4BA0680C93B58007F0E8FF86
:10C4A00003683100DB6A98470621A06807F09CFE0C
:10C4B000089A09219378A068043207F0A8FEA068C2
:10C4C00007F0D6FF0571A06807F0D2FF3221FFF711
:10C4D00087FDA06807F0CCFF07F070FE0AA806F001
:10C4E0005BFA09A806F058FA08A806F055FA912355
:10C4F0009B009D44F0BD036142E703615AE703617D
:10C5000076E7C046BCFDFFFF776B0200AD6A020014
:10C51000856B0200E540020031C20100F3400200D9
:10C520005DBD0100014102002F4102000F410200E8
:10C5300051C5010085C50100F8240020F424002025
:10C5400008200020F02400200C200020080010000B
:10C5500013B506226846FCF7D7FD094B1C68002C72
:10C560000AD0694601A806F06EFA200001A907F07A
:10C5700091FE01A806F010FA684606F00DFA13BD08
:10C58000FC240020002373B501AE0C00310005002F
:10C59000019302F0FDF9002802D1B278064B1A701F
:10C5A000064B1868002806D061426141044BC9B2AD
:10C5B0001D8007F077FE73BD7C200020FC24002046
:10C5C0007827002030B5284CA9B06A220D000DA8AC
:10C5D000210009F051FA0DA903A8FCF7F3FD03A906
:10C5E00006A806F0A4FA01230193013BFF3B009348
:10C5F0000533FF33642206A92800FDF7D1FF06A802
:10C6000006F088FA210019226A3106A809F034FAE6
:10C6100005220024110006AB04A806F0AFFA04A915
:10C6200005A806F084FA019400942300220005A9CD
:10C630002800FDF7F9FE05A806F06CFA2100280095
:10C64000FDF7DCFF05340520FCF71CFBFF2CF5D1C2
:10C65000FA208000FCF716FB04A806F05BFA03A89A
:10C6600006F058FA29B030BD096A0200F0B58A4BCD
:10C670008DB005921A68082304000391D16C07A8B5
:10C680000B43D3648549FCF72FFD854908A8FCF7C7
:10C690002BFD220000251C3207A90BA806F0EAF9A1
:10C6A00008AA0BA909A806F0E5F90BA806F074F989
:10C6B000631CDD77A06807F0DBFE03685B699847C1
:10C6C000A06807F0D5FE070006000A371F222900E0
:10C6D000380009F0EDF9FD77300007F066FD06211E
:10C6E000A06807F081FD099A09219378A0680432B7
:10C6F00007F08DFDA06807F0BBFE0571A06807F08C
:10C70000B7FEC821FFF76CFCA06807F0B1FEFF2759
:10C710002E000581A06807F0ABFE07F04FFD0398DF
:10C72000FDF786FD2000FCF713FA03992000FFF7C0
:10C7300049FF0399200007F0C8FD049501256369AE
:10C740001D402DD057490AA8FCF7BAFD0AA90BA82D
:10C7500006F0EDF900220BA9130001920092039854
:10C76000FDF762FE0BA806F0D5F9049B002B42D121
:10C77000043F282F41DD0025FE2F00DC049D059895
:10C7800006F0BBFB002806D0012362699A43130020
:10C7900004221343636100260AA806F0BBF904953E
:10C7A00004226369134233D0FF210398C826FDF7A2
:10C7B00025FF0025B600A36902229B5EAB4222DD65
:10C7C000200029B2183006F06BF90023010003980D
:10C7D0001A007430FCF7C4FD3000FCF753FA0398DC
:10C7E00006F092FFC820FCF74DFA0222636913425B
:10C7F00009D10135DFE70437BBE7039806F084FF72
:10C80000002FBCDDBAE7FA208000FCF73BFA0026D7
:10C81000022365691D421CD006331D4024D02249E5
:10C820000AA8FCF74DFD0AA90BA806F080F9002222
:10C830000BA90192009213000398FDF7F5FD0BA8D8
:10C8400006F068F91948FCF71DFA0AA806F062F923
:10C85000174E6420FCF716FA164B01369E4200DC98
:10C860006CE705F043FF69E713490AA8FCF728FDC8
:10C870000AA90BA806F05BF92B002A000BA9019569
:10C8800000950398FDF7D0FD0BA806F043F90AA820
:10C8900006F040F9DDE7C04680240020A06A0200CF
:10C8A000856B0200B06A0200F56A0200983A000047
:10C8B0008C0A00008B0A0000326B0200002815D0A1
:10C8C000006041608260C360046145618661C76148
:10C8D000444604624C464462544684625C46C462E8
:10C8E000644604636E46466374468463002A06D039
:10C8F000C46B043C043A25681560B442F9D18C6BD2
:10C90000A6464E6BB546002B06D0CC6B043C043BD0
:10C910001D682560B442F9D10C6BA446CC6AA346CD
:10C920008C6AA2464C6AA1460C6AA046CF698E6901
:10C930004D690C69CB688A6808684968704700606F
:10C9400041608260C360046145618661C76144469D
:10C9500004624C464462544684625C46C462644647
:10C9600004636E46466374468463C46B043C0439B6
:10C9700025680D60B442F9D1C769866945690469C3
:10C980007047006041608260C360046145618661F8
:10C99000C761444604624C464462544684625C4625
:10C9A000C462644604636C464463744684630469E9
:10C9B0007047846BA646446BA546046BA446C46AC4
:10C9C000A346846AA246446AA146046AA046C7698F
:10C9D000866945690469C368826800684168704770
:10C9E00010B5041E0CD009F0A3F8431EE3189C42B6
:10C9F00008D222781978013B21705A700134F6E789
:10CA0000014810BD0020FCE717FCFFFFF0B585B022
:10CA100002900C1E2AD00023C217161A564001930A
:10CA2000019B30005D1C63190A215F1E039303F014
:10CA3000D5FD49423031397030000A2103F0E8FC5D
:10CA400047420600002F0FD1029B002B04DA2D2352
:10CA5000019D039A02351370002320006355FFF7F0
:10CA6000BFFF380005B0F0BD0195D9E7004FF8E7EA
:10CA700017FCFFFF0268084B406810B5C018C000E3
:10CA8000101803009A4205D81C688C4202D3180083
:10CA9000083BF7E710BDC046FFFFFF1F70B5002839
:10CAA00017D1114D2E68002E11D1083008F0B1FFBA
:10CAB000066046600D4E04003368002B02D108F07A
:10CAC000C6F8306023682C609B00F35863602868C8
:10CAD00070BD0122064907480B681340F8D1026077
:10CAE00043600A60F4E7C0460425002010250020BA
:10CAF0000025002008250020002370B504000160F7
:10CB0000436099420AD1064D2B68002B02D108F0F0
:10CB10009EF8286023689B00EB586360200070BD7E
:10CB200010250020436810B50400002B02D10448F2
:10CB300008F07DFE606803681B69984710BDC04619
:10CB4000946B0200436810B50400002B02D1044826
:10CB500008F06DFE606803689B69984710BDC04689
:10CB6000946B0200436810B50400002B02D1044806
:10CB700008F05DFE606803685B6A984710BDC046B8
:10CB8000946B020010B5040002F080FB034B1B689D
:10CB9000002B01D02000984710BDC046182500206A
:10CBA000F0B58BB0050001F033FD002000F0ACFEC5
:10CBB000036807001B6998473B6804009B693800BD
:10CBC00098473B6806005B6A38009847030028884E
:10CBD00010380B2862D803F087FB063E6161615B69
:10CBE000616161676179AF882000390007F0F6FD67
:10CBF00022006B7B583201931378A8799C4602235C
:10CC000061460B43137004AB1F80012304AA937089
:10CC1000D07013006A461279E91D9A722B00062221
:10CC2000163305A8099308F027FF29000B2004AB51
:10CC300006220E31C01808F01FFF94346368A36009
:10CC4000A06800282AD0C36804A99847A368002BCD
:10CC5000F4D01B69F3E720002F49AF8807F0BEFD31
:10CC60002200022058321378A9798343137004AB51
:10CC70001F809970A0346368A360A06800280DD05D
:10CC8000C36804A99847A368002BF4D01B69F3E795
:10CC90005B69A888A91D002B00D0984729003000A7
:10CCA00008F02BF90BB0F0BD636E002BF6D0AF7916
:10CCB000A366A06E0028F1D0C36839009847A36E20
:10CCC000002B01D1636EF3E71B69F1E7012269468E
:10CCD0000D27AB7BEF571A4001925A07920FDB08E2
:10CCE0000A720B730622E91D04A808F0C5FE6A4605
:10CCF000127904ABDA716A46127A9F711A726A4627
:10CD0000127B20005A722B000F3307938C34803033
:10CD1000236804A99847C1E7FFFF00000723D7282D
:10CD200002D9024B18600023180070471425002018
:10CD3000014B18607047C046182500201FB580229F
:10CD4000A323D205DB00D3580820DB0700D405302D
:10CD50001C4B48221C4901F095FE00280AD080B2E5
:10CD6000002807D1BFF34F8F184B194ADA60BFF381
:10CD70004F8FFEE7002302A8029301330370154B87
:10CD80001B68436007F084FB002802D0072005B031
:10CD900000BD684607F07AFB0028F7D1694607F026
:10CDA00073FB0028F2D10C4801F09CFE80B20028F1
:10CDB000EDD10A4801F0A0FE80B20028E7D100F0D2
:10CDC0001FF8E4E7954402001C25002000ED00E078
:10CDD0000400FA0514250020A1CB010085CB010039
:10CDE00080B2002807D1BFF34F8F034B034ADA60AC
:10CDF000BFF34F8FFEE7704700ED00E00400FA0537
:10CE00001FB5002302ACA380104B01A80293C823D6
:10CE10005B00E380803BFF3B037005220C4907F079
:10CE200045FB80B200280FD18020800007F03AFB3C
:10CE300080B2002808D1200007F036FB80B200281D
:10CE400002D107F02DFB80B204B010BD2800900184
:10CE5000B76B0200024B0B60092313607047C0469A
:10CE6000BD6B020010B50400002000F04DFD03680A
:10CE70001B6998470300F3331C7086235B00C05086
:10CE800003000021044AFC335A61044A99615A6242
:10CE9000F43008F048FB10BD99460200AB46020092
:10CEA000012110B5044A080002F0FEFB002398425D
:10CEB00000D00B33180010BD65CE0100F8B5050099
:10CEC0000400AC356B68AB60A868002807D0C36865
:10CED00021009847AB68002BF4D01B69F3E72600CC
:10CEE000B0363568002D05D02F69280008F08DFD7B
:10CEF0003D00F7E72200FC21356058321378260008
:10CF00000B40137023000A365C331D701F2229006A
:10CF1000300008F0CDFDF5772A361F2229003000B9
:10CF200008F0C6FDF577606E002804D0056908F0AA
:10CF30006CFD2800F8E72500983560662868002811
:10CF400004D0066908F061FD3000F8E72600A43639
:10CF500028603568002D05D02F69280008F055FDA0
:10CF60003D00F7E72000356029000C226C3008F006
:10CF70009FFD2000074BE567A36729000C22803046
:10CF800008F096FD2300044A8C33903428001A6080
:10CF90002560F8BD8B4602007D460200F0B593B0D7
:10CFA000019000200C0000F0AFFC03685B6A98471A
:10CFB00000F082F906AB00280ED000221A7105AAF3
:10CFC0000692082218001A730AAA9A6000F042FA20
:10CFD000002803D013B0F0BD187118730027277311
:10CFE0002771019BBA331B78BB4242D907237B438D
:10CFF0001A000199BB32CB18BB331B788A180292F6
:10D00000022B2ED1002506AE337BAB4223D9AB00D9
:10D010000393089BAA009958029807F0E9FB00289F
:10D020001CD0B3689C46AB001900237B614402937B
:10D030009A000868A368D050029B01332373337BA6
:10D040005A1E954205D00C481B1860469B001B5881
:10D050000B6006AB1A730137FFB2C2E70135EDB2C0
:10D06000D1E72379216802989A0001335050237147
:10D07000F1E70020AEE7C046FFFFFF3FF0B50A78BA
:10D0800004009BB00D000220012A08D04B88032A1F
:10D0900007D1A03B21499BB210008B4207D91BB09E
:10D0A000F0BD203B1E4A9BB203209342F7D81D4B94
:10D0B000AA8803209A42F2D80AAB009312AB0293DB
:10D0C0006A460023260013711373B8363378002B99
:10D0D0001DD104AF18220021380008F0E9FC2B789C
:10D0E00038003B7033783B726B46FB606B883B8249
:10D0F000AB887B8207F0E6F902000320002ACED13C
:10D1000001235834217810000B432370C7E7694688
:10D110002000FFF743FF0028DBD0C0E7603F00009E
:10D12000E03F0000FF3F0000F0B59DB01E006B46E1
:10D1300004001A70581C0622229D08F09DFC002E47
:10D140002ED0328802AB1A8072885A80B2889A80B8
:10D15000F288DA800CAB04AE049314ABB360270002
:10D160000023B937337133733B78002B1ED1012272
:10D170003B78022708A9134058000B784E60BB4348
:10D180000343002D1AD12000323000789343104021
:10D1900003430B70A38D0B81E38D4B81238E17E02E
:10D1A0001A4B029396239B040393D3E7310020008C
:10D1B000FFF7F4FE0028DAD01DB0F0BDA879934344
:10D1C000104003430B702B880B816B884B81AB881D
:10D1D00002AA68468B8107F08BF903000020834286
:10D1E000EAD00630082BE7D006D80130042BE3D074
:10D1F000834209D10420DFE70520112BDCD0044A4B
:10D200009342F7D0102BF5D00B20D5E73200640005
:10D210000232000070B500200D0000F075FB0368BD
:10D220005B6A98472B780400142B1ED003D8132B6D
:10D230000CD0002070BD152B1FD0222BF9D16B68AC
:10D2400018882369002BF4D09847F2E76B68012512
:10D2500018889B78646819005A08DB0629402A4020
:10D260005B0F002CE5D0A047E3E76B68188899783E
:10D27000A368002BDDD09847DBE768688278130944
:10D280001207120F012A03D0022A0BD0002106E058
:10D29000013BDBB20021022B01D8064AD15C008899
:10D2A000E368E6E70421012BF9D00131022BF6D027
:10D2B000ECE7C046C66B0200014B18787047C046C9
:10D2C00096270020F0B51D000023304F87B0009254
:10D2D0003A7806000C009A4204D102F00BF80028BC
:10D2E00003D00B23180007B0F0BD002D0ED003A90A
:10D2F0002220039507F07AFA002807D00623082891
:10D30000F0D01138434243410433EBE7002302AA33
:10D310001000137000F0D4FF0028E2D101251C4951
:10D3200002220B782E40AB433343072693430193ED
:10D33000009B2C4033409340AC409C46019B02AA8A
:10D340001C431C239C4363461C430E239B181880DC
:10D35000104B0C700393022303AC2371093002AB12
:10D360000522C01808F088FB21000B4801F012F8D4
:10D37000002807D033000428B4D0013B0828B1D0DE
:10D380000533AFE73D700300ACE7C04696270020A9
:10D390007D20002015D201009727002010B50748F6
:10D3A00001F0D0F80023984206D00733042803D0B8
:10D3B000013B082800D00533180010BD9727002036
:10D3C000002373B501930F4B01AD1B780E002900AC
:10D3D0002B7001F0DDFA041E05D00423052800D0CF
:10D3E0000733180076BD3100280001F00DF8230046
:10D3F0000028F6D007230428F3D0013B0828F0D0FA
:10D400000533EEE79727002073B5114C0E00050099
:10D4100005222100684608F02FFB012E03D0022EC2
:10D4200010D002230CE002222378B34393436946D1
:10D430002800237007F0D8F90023984200D00B335E
:10D44000180076BD012322781343B343EFE7C046AB
:10D450007D200020094B10B51A7801000923002A0D
:10D4600009D0074801F008F80023984203D003339D
:10D470000E2800D00333180010BDC04696270020A8
:10D480009727002000487047FFFF0000F0B597B0D5
:10D490000593036807AD1B680491039311002B00EB
:10D4A000060091C991C30024D36821000C220CA866
:10D4B000EB602C6108F0FCFA22000B4B10940F93E8
:10D4C00011AB1C70191901344A70102CFAD15A8210
:10D4D0000193059B2A00009304990CAB3000039C38
:10D4E000A04717B0F0BDC0460749020070B5FC3038
:10D4F000046C0500002C0DD1242008F08AFA064B9C
:10D5000044608361054B8460C46004614461C4610C
:10D5100003602864286C70BD5C62020044630200F2
:10D5200070B5FC30C56B0400002D11D1342008F01B
:10D5300070FA084B85604360074B45610361074BF8
:10D540000562C361064BC5628362064BE0630360FC
:10D55000E06B70BD8C6202007C620200EC62020033
:10D56000FC6202000C6302007FB503791548002BB2
:10D5700022D0154E154C33782000002B1CD102AD63
:10D58000280007F0ABF9002810D16B88592B0DD17A
:10D590002B78AA88D91F012910D800920C4A202183
:10D5A000200004F029FD0123337004E02022094902
:10D5B000200008F0C4FA200004B070BD0092064AB2
:10D5C000EDE7C046C96B0200B8270020982700206D
:10D5D000EB6B0200E36B0200086C020010B5040064
:10D5E000024B08C007F04CFA200010BD7C6202001C
:10D5F00010B50400024B08C007F057FA200010BD18
:10D600008C620200064B70B504000360406800287D
:10D6100004D0056908F0F9F92800F8E7200070BD8A
:10D620006C620200064B70B504000360406800287D
:10D6300004D0056908F0E9F92800F8E7200070BD7A
:10D640009C620200064B70B504000360406800282D
:10D6500004D0056908F0D9F92800F8E7200070BD6A
:10D66000AC620200064B70B50400036040680028FD
:10D6700004D0056908F0C9F92800F8E7200070BD5A
:10D68000EC620200064B70B504000360406800289D
:10D6900004D0056908F0B9F92800F8E7200070BD4A
:10D6A000FC620200064B70B504000360406800286D
:10D6B00004D0056908F0A9F92800F8E7200070BD3A
:10D6C00090610200064B70B50400036040680028BA
:10D6D00004D0056908F099F92800F8E7200070BD2A
:10D6E000A0610200064B70B504000360406800288A
:10D6F00004D0056908F089F92800F8E7200070BD1A
:10D70000B0610200064B70B5040003604068002859
:10D7100004D0056908F079F92800F8E7200070BD09
:10D72000C0610200064B70B5040003604068002829
:10D7300004D0056908F069F92800F8E7200070BDF9
:10D740005C62020070B5FC30046C0500002C0DD149
:10D75000242008F05EF9064B44608361054B846029
:10D76000C46004614461C46103602864286C70BDB6
:10D770005C62020044630200104B10B50833036082
:10D780000F4B0400C36080230E4A5B00C250C018D8
:10D79000FCF724FC20000C4BB830E360FFF7B2FF2D
:10D7A0002000AC30FFF79EFF2000A030FFF78AFF7B
:10D7B00020006C30FFF776FF200010BD7063020080
:10D7C0000461020098640200D0610200444AF0B58E
:10D7D0000600C260A022434B1636083303600100E6
:10D7E000002342820400320085B003718360037419
:10D7F00083823531137001329142FBD18025802222
:10D800002000AD00D201F377358411000093383049
:10D81000002300F029FB23002100403303931A006A
:10D820002B0000255F31157001328A42FBD1039A2B
:10D83000FC21D577220060321380137920000B4041
:10D840001371230068331D70274B2567E3660C2294
:10D850000021783008F02CF92300270088331D6060
:10D86000224B0837FB67843700210C22380008F070
:10D870001FF91F4B1F4AFB602300A0333D611A6054
:10D880001D4A5D60DA601D4A1D619A61DD613000EC
:10D8900007F0D4F9039807F0D1F9194B601CE36045
:10D8A0002300C4331D705D709D70FF3001F048FF90
:10D8B0008C235B00E55023001933FF335D61802327
:10D8C000104A5B00E250230001222000FE33524246
:10D8D0005A86023B9D63DD631D6405B0F0BDC04602
:10D8E000D061020070630200906102008B4602006A
:10D8F0007D460200A0610200B0610200C06102002A
:10D90000046102009864020070B5074C2368002B84
:10D9100007D1A020400008F07CF80500FFF756FF73
:10D920002560206870BDC0466425002070B50C22BB
:10D930000D000021040008F0BBF800232361024B16
:10D9400025602000E36070BDF948020070B5002535
:10D950000400254B85800360244BC5608360244B05
:10D9600085614361234B45620362234B0563C362B8
:10D97000224BC563836329004430FFF7D7FF2000A3
:10D9800029005830FFF7D2FF200029006C30FFF744
:10D99000CDFF1B4B2200236023008032F83320C2CE
:10D9A0009342FCD126001D00E936FF3628000822EC
:10D9B0000021083508F07CF8AE42F7D18E23002212
:10D9C0009B00E11804C6B142FCD18E2300219B00CC
:10D9D000E2540C4B0C4AE318A218198002339A4205
:10D9E000FBD1200070BDC046BC6202006C62020028
:10D9F0007C6202008C6202009C620200AC62020047
:10DA0000B86302003A0200006202000013B5046825
:10DA10000093A46813000A000149A04716BDC04640
:10DA2000FFFF000037B506AC257804680195009328
:10DA3000246913000A000149A0473EBDFFFF000012
:10DA4000F0B587B00D00002469466F4616004C8083
:10DA50000DAA0CA90988127839800193A2421BD122
:10DA600001004479F83194420DD908310F00083F84
:10DA70003F88B7421BD13021203292001258013228
:10DA8000D27F0A4215D16A463100280007F063F9B7
:10DA9000002808D1062407E06A463100280007F074
:10DAA0005AF9002800D00324200007B0F0BD01324D
:10DAB000D9E710210A4051424A41002002ACE360FC
:10DAC0000CABA360174B01322680A270A0809D4250
:10DAD00007D1FFF719FF03681B69984706F081FE1D
